:020000040000FA
:10000000F8050010693D0000713D0000733D0000DF
:10001000753D0000773D0000793D000000000000C4
:100020000000000000000000000000007B3D000018
:100030007D3D0000000000007F3D0000E523000042
:10004000833D000017070000833D0000833D000052
:10005000833D0000833D0000833D0000833D0000A0
:10006000833D0000833D0000833D0000833D000090
:10007000833D0000833D0000833D0000833D000080
:10008000833D0000833D0000833D0000833D000070
:10009000833D0000833D0000833D0000833D000060
:1000A000C50F0000833D0000833D0000833D00003C
:1000B000833D0000833D0000833D0000833D000040
:1000C000833D0000833D0000833D000000F002F806
:1000D00000F044F80AA090E8000C82448344AAF19E
:1000E0000107DA4501D100F039F8AFF2090EBAE89C
:1000F0000F0013F0010F18BFFB1A43F0010318475C
:10010000409B0100709B0100103A24BF78C878C161
:10011000FAD8520724BF30C830C144BF04680C600D
:10012000704700000023002400250026103A28BF55
:1001300078C1FBD8520728BF30C148BF0B60704759
:10014000642903F01987732904F066800020704742
:100150001FB503F062FF1FBD10B510BD04F060F8BD
:100160001146FFF7F5FF01F086FA04F07EF803B4BC
:10017000FFF7F2FF03BC04F085F800000B49D1F84B
:1001800000C04A685CF8043B1068184442F8040B4D
:100190008C4528BFA1F1DC0C8A4228BFA1F1DC020A
:1001A000C1F800C04A6020F0004070479003001082
:1001B00010B500F0A5F810BD7047704770471FB527
:1001C000044604F0080010B3032000F0CEFE2B49D3
:1001D00009682B4A1288022303FB0211884217D0B8
:1001E0002748008880302649088008460088C0F3E8
:1001F000090008800846008822490988401AC0F38F
:100200000900B0F5007F0AD101201F49087006E0FF
:1002100000201D4908701A4800881A4908800A20E1
:10022000F0B11648006816490988022202FB010055
:1002300000900420ADF804000020ADF8060013483B
:100240000068029000200390039820F00200801CB8
:1002500003906946032000F0D0FD032000F049FE22
:100260001FBD7047704770477047704770477047B1
:1002700070477047704770477047000038000010A3
:10028000400000103E00001042000010340000103A
:100290001248006840F400401049C439C1F8C40055
:1002A0000F48C0680F4908400D49C8600E48006AF1
:1002B00020F0F2600C49086270470B49496B7922C3
:1002C00002EA1150704700B50023FFF7F6FF03461E
:1002D000792020EA0303184600BD0000C4C00F4087
:1002E00000C00240FF3CC0FF00C0092070477047BB
:1002F00070470A6802F8010B0A607047FFFFFFFFB2
:100300000020EB490880EB490870EB4908704FF07A
:100310000110EA4908600020E9490860E9490860DD
:10032000704710B5E849002000F0ECFC10BD10B596
:10033000E6488088402801DD402401E0E3488488C5
:10034000E24822460168802000F00DFD0446DF48A7
:1003500000682044DD49086008468088001B8880CA
:1003600010BD10B5D9480168002000F0CBFC044650
:10037000D64800682044D549086008468088001B9C
:10038000888010BD10B500221146802000F0EBFCE3
:1003900010BD10B5CE49002000F0B4FC10BD10B562
:1003A0000446082C6FD2DFE804F06E04F2F16E6EA2
:1003B000F0EFFFF7B6FFC4490978C80900F059FC0F
:1003C000C148C088C1498880BF480078C0F3411047
:1003D00010B1012879D190E0BB4840780C2875D243
:1003E000DFE800F0060D8815881D333A41555C8121
:1003F00003F0ACFF00B9E1E0FFF799FF7BE00020DC
:1004000004F004F800B9D9E0FFF7BCFF73E0012065
:1004100003F0FCFF00B9D1E0FFF7B4FF6BE000BFD1
:10042000A948007800F01F0030B9A748807840F054
:100430008000A049087001E0002001E000BF012019
:1004400000B9BBE0FFF79EFF55E003F023FF00B9C2
:10045000B4E0FFF76CFF4EE0002000F032FC00201B
:100460009A49888047E000BF9748007800F01F0055
:1004700018B991489549086001E0002001E000BFEB
:10048000012008B99AE011E1FFF751FF33E004F0D1
:1004900033F800B992E0FFF775FF2CE000BF8A48FF
:1004A000007800F01F00012814D18348007870B153
:1004B0008548007987490978884208DA82480079B6
:1004C000854908448149086003E076E012E0002095
:1004D00004E001E0002001E000BF012000B96DE070
:1004E000FFF725FF07E004F0E3F800B966E0FFF747
:1004F00049FF00E062E000BF67E07348007800F069
:100500001F0020B1012803D0022854D12DE055E06E
:100510006D48007938B16C480079012803D06A48E9
:100520000079022820D16848407882280BD004DC6A
:10053000012814D0812816D104E0832804D084280F
:1005400011D102E000BF00BF00BF00F05BFE28B188
:100550005F485E490860FFF7EAFE2DE003E05C4873
:100560005A49086028E000BF28E0574840788228B0
:100570000FD004DC012818D081281AD108E0832884
:1005800008D0842815D106E08CE087E06DE01EE0FD
:1005900000BF00BF00BF00F09DFE28B14C484B4992
:1005A0000860FFF7C4FE07E003E0494847490860D8
:1005B00002E000BF02E001E007E000BF802000F0A1
:1005C00080FB00204149888000BF00BF6EE03E48AC
:1005D0000078C00980BB3D48808870B3FFF7C1FE3A
:1005E0003A48808848BB38480078C0F3411010B1C1
:1005F000012835D100E0E1E73348007800F01F0022
:1006000020B1012803D0022828D11AE0D6E72E48CD
:10061000007938B12C480079012803D02A480079A4
:1006200002280DD128484078012808D100F02AFE80
:1006300020B1FFF7A7FE12E014E015E000BF00BFF5
:10064000BCE721484078012806D100F045FE10B1F2
:10065000FFF798FE03E000BF00BFAFE7AEE700E0A2
:10066000ACE701E0FFF795FE20E017480078012194
:10067000B1EBD01F02D1FFF75AFE0EE00D48007813
:1006800000F0800048B10B48007800F07F00094975
:1006900008700846007800F0DFF907E0002000F05D
:1006A0001DFB03E0802000F019FB00BF00BF10BD60
:1006B00000000010020000100300001004000010F1
:1006C000080000100C00001020000010180000109E
:1006D000CC000010100000101100001094490968AF
:1006E00041F08071924A116000BF9149486800F062
:1006F00000410029F9D08E49096821F080718C4AA7
:100700001160F82101EA1021082202EAD0121144F6
:10071000884A1180704770B50120874908608AE0D7
:10072000FFF7D1FD0646012E13D100F0F7F818208F
:1007300000F0F4F8002000F040FA00F0A2F90020E8
:1007400000F08AF9012000F038FA00207A490860A8
:1007500076E07A480078002836D0794800687949F0
:10076000098830F911407848008876490988401A8C
:10077000C0F30905B5F5607F04D172480088401CBC
:1007800070490880802D04D96E480088401C6D494E
:1007900008806C480088C0F309006A490880002C72
:1007A00005DA6A480068001B6849086004E0674889
:1007B0000068204465490860654800684443241483
:1007C00004F50044A4B201E04FF40044614800780D
:1007D00008B14FF400444FF6C07020405E490860F5
:1007E0005E4801880068401C5C4A1060C1F3090043
:1007F000D0B9FFF773FF5A480088B0F5004F03D116
:1008000000205349086006E0554800884949098896
:1008100048434F4908604D480068040D00204B498B
:100820000860072C00DD072401204FF040210860FC
:100830000020414908604048006801283FF470AF3B
:1008400000BF70BD0EB501203B49086003F0E1F91F
:100850004448406820F470104249486008464068A7
:1008600040F4101048604048006840F480503E4911
:10087000C439C1F8C4003D482D4908604FF4004018
:10088000354908603848E4300068C0F381000290C0
:10089000029830B1012809D002280BD003280ED0CD
:1008A00000BF33480068800801900DE030480068C0
:1008B000019009E02E4800684008019004E02C48AF
:1008C0000068C008019000BF00BF4FF4FA410198D2
:1008D000B0FBF1F0401E4FF04021886103204861D9
:1008E00001204860002001F00BFC2248CD23C422E7
:1008F00000210090084601F004FD01200121814003
:100900004209920002F1E022C2F8001100BF00F09B
:100910000FF9012000F051F900200EBD00F01F0278
:1009200001219140144A430942F823107047000006
:100930000040034044000010280000104200001056
:10094000380000103E000010400000104800001069
:10095000300000102C00001000C008404C000010B7
:100960005800001000C00240C4C00F40040E200018
:10097000C8000010D861000080E100E001460A07CD
:10098000D00E01F0800202B1401C70471021FE4AD7
:100990001160FE49C1F8100200BFFB49083909681F
:1009A00001F010010029F8D070471022F64B1A60B0
:1009B000F64AC2F8100200BFF34A083A126802F081
:1009C0001002002AF8D01022EF4B1A60EF4AC2F84A
:1009D000101200BFEC4A083A126802F01002002A16
:1009E000F8D0704710B504460B461020E649086061
:1009F0002046FFF7C3FF4FF4A06141EA0040E349FE
:100A0000C1F8100200BFE0480838006800F010008C
:100A10000028F8D01020DC490860DC48C0F810320B
:100A200000BFD9480838006800F010000028F8D04E
:100A300010BD01463020D44A1060D448C0F81012CE
:100A400000BFD1480838006800F020000028F8D026
:100A5000CD480C300068704710B5044644F0800063
:100A60004FF4807242EA0041C948FFF79EFF44F00C
:100A700080004FF4807242EA0041C548FFF795FFBD
:100A800010BD0021C04A403211604021BF4AC2F867
:100A90004C120121BC4A403211604021BB4AC2F8CD
:100AA0004C1200BFB8490839096801F48071002967
:100AB000F8D04FF0FF31B44A303211606FF040018E
:100AC000B24AC2F83412C911AF4A11600D21121F87
:100AD0001160B049AC4A783211604FF0FF31AA4A38
:100AE0004C321160A84A843211604021121F1160FB
:100AF0004FF0FF31A44A9C321160A34AA832116022
:100B0000A14AB432116007219F4A8C321160002142
:100B1000A14A11605160002007E000219F4A42F87D
:100B200020109F4A42F82010401C2028F5D370471F
:100B300000B59C48406820F070509A4948600846CB
:100B4000406840F0A05048600846C0689649084098
:100B50009449C8600846C068944908439149C860F0
:100B60000846006920F4402008610846006940F406
:100B7000802008618E48006840F000408C49C439EC
:100B8000C1F8C40012208B49086000BF8948001DCD
:100B9000006800F012001228F8D1182001218140CD
:100BA0004209920002F1E022C2F8001100BFFFF7F3
:100BB00068FF0020FFF750FF00BD10B504460CB1E0
:100BC000012000E000204FF4807242EA00417A48A0
:100BD000FFF7EBFE10BD7047704700B5774800780F
:100BE00000F0020018B176497348FFF7DEFE00BD41
:100BF000704710B504460CB1012000E000204FF40E
:100C0000807242EA00416F48FFF7CFFE03205E4941
:100C10003C31086000BF5C480838006800F4807010
:100C20000028F8D04FF480705749086010BD10B507
:100C300003469878FFF7A2FE044653483C3000680C
:100C40000121A14008435149C1F844024E484030B7
:100C500004609888C1F84C0200BF4B48083800680F
:100C600000F480700028F8D04FF480704649086086
:100C700010BD704730B504462046FFF77FFE52494D
:100C800041EA004589132846FFF78FFE30BD30B595
:100C900004462046FFF772FE4B4941EA00454B49A6
:100CA0002846FFF782FE30BD30B504462046FFF7E8
:100CB00065FE454941EA004589132846FFF775FE60
:100CC00030BD30B504462046FFF758FE3E4941EAA4
:100CD00000453B492846FFF768FE30BD30B5044665
:100CE0002046FFF74BFE384941EA00458913284664
:100CF000FFF75BFE30BD10B5044635492046FFF7CF
:100D000071FE10BDF0B505460F4605F00F0001213C
:100D100001EB80001C492031086000BF1A481830E0
:100D2000046804F400600028F8D0C4F30904002625
:100D300005E01648D0F8180238603F1D761CE01C0C
:100D4000B6EB900FF5D300200F492031086041F237
:100D50004820284100F0010018B91D492846FFF736
:100D600041FE2046F0BDF0B506460D46144606F09D
:100D70000F00022101EB8000034920310860034885
:100D8000C0F8244200272AE008C2005000C00050EA
:100D90000005D00000000820500000100C010010D9
:100DA0000000082000C00240CFFFFFCF100000204D
:100DB000C4C00F40F4CF00500005FE00000000103A
:100DC000000101000005D8000005400000012000DE
:100DD0000005F2002868FE4908602D1D7F1CE01CFC
:100DE000B7EB900FF6D30020F9490C310860F949B0
:100DF0003046FFF7F7FD2046F0BD2DE9F043814670
:100E00000C46207BC0F340054846FFF7B7FD8046FF
:100E10000027F14850F8283017E01F46207B00F0EB
:100E2000010088B9ED4850F82500381AEC4951F80E
:100E30002510B0FBF1F6EB4850F825000121B14038
:100E40008843E84941F825003B68002BE5D100269E
:100E500008E0E44850F825100120B040014001B9F5
:100E600002E0761C202EF4D300BF202E02D10020F9
:100E7000BDE8F083DB4850F825100120B040014365
:100E8000D84840F82510D54850F82500D44951F8E5
:100E9000251006FB01034FB1207B00F0010028B1B3
:100EA0003B60786840F00400786005E0CA4840F88C
:100EB0002830CD4840F82830002001C3207BC0F303
:100EC0008000217BC1F3400140EA0110E18840EA43
:100ED0004110A18840EA014001C3206801C3A089F4
:100EE000C0F30720000201C30DB1A0681860012003
:100EF000BEE700B503461846FFF740FD01218140DB
:100F0000B3486C30016000BD00B503461846FFF7DA
:100F100035FD01218140AE487030016000BD30B523
:100F200005462846FFF72AFDAF4951F820300BB996
:100F3000002030BDDC68C4F343000A2812D2DFE889
:100F400000F00507090B111111110D0F0120F0E739
:100F50000220EEE70320ECE70520EAE70420E8E7BB
:100F60000620E6E74FF6FF70E3E730B50546284672
:100F7000FFF704FD9C4951F8203013B94FF0FF30C2
:100F800030BD9C682046FBE730B505462846FFF794
:100F9000F5FC954951F8203013B94FF0FF3030BDC2
:100FA000DC68200CFBE700B59048FFF7EFFC9048A9
:100FB000FFF73FFD03468E48FFF73BFD43EA002362
:100FC000184600BD2DE9F04781481C38076807F036
:100FD0000800E8B108207E49143908608548FFF709
:100FE000D5FC8548FFF725FD064606F0100018B130
:100FF000FFF747FDFFF7DCF806F0080038B106F010
:10100000040010B1FFF7E7FD01E0FFF7E5FDDCE0CC
:1010100007F0010008B1FFF7CFF807F0040000283F
:101020004ED04FF000097548D0F83082002440E0DF
:10103000C84500D13FE00120A04000EA080060B3AD
:101040000120A04040EA090965080120A04060494C
:101050001C31086000BF5E481C38006800F02000AA
:101060000028F8D05A480838066804F00100A8B9EA
:1010700054B906F0040038B16148006820B16048F6
:1010800001680120884713E05D4850F8250020B131
:101090005B4850F825100220884708E0584850F86F
:1010A000250020B1564850F825100320884700BF7E
:1010B000641C202CBCD300BF0420454914390860AF
:1010C00043487430006800F0010028B34048843081
:1010D000066802241BE00120A0403040B0B1650842
:1010E00004F0010048B9464850F8250070B1444862
:1010F00050F825100820884708E0414850F825009E
:1011000020B13F4850F8251009208847641C202C46
:10111000E1D32F48883006602D487430006800F015
:10112000020028B32A489030066802241BE0012000
:10113000A0403040B0B1650804F0010048B9304823
:1011400050F8250070B12E4850F825100A20884725
:1011500008E02B4850F8250020B1294850F8251008
:101160000B208847641C202CE1D31948943006607A
:1011700017487430006800F0040028B314489C300D
:10118000066802241BE00120A0403040B0B1650891
:1011900004F0010048B91A4850F8250070B1184809
:1011A00050F825100C20884708E0154850F8250015
:1011B00020B1134850F825100D208847641C202CBE
:1011C000E1D30348A030066000BFBDE8F08700000F
:1011D0001CC200500005FA000C0100100449000078
:1011E0000C49000050000010000008200005F50028
:1011F0000002F5000005FE000002FE0000C00050E5
:10120000E047000035488088B0F5007F38D133488A
:10121000807890BB3148C078012802D002282ED1B6
:101220000AE02E484078812805D12D4800782D49C4
:1012300008700120704722E028484078812806D0B5
:1012400082280AD083280DD0842817D110E02648A0
:101250000088244908800120ECE70020214908800B
:101260000120E7E74FF480701E4908800120E1E784
:1012700004201C4908800120DCE701E000BF00BF1A
:101280000020D7E715488088B0F5007F20D11348AB
:101290008078E8B91148C078012802D0022816D118
:1012A0000AE00E484078012805D10E4800780C4924
:1012B0000870012070470AE008484078012805D1ED
:1012C00008480088084908800120F3E700BF00BFF4
:1012D0000020EFE70020704700207047200000103A
:1012E0002C000010CC0000105800001070B5002435
:1012F000002600F075FB4FF6FF7000F004FFFEF7CC
:10130000C7FF98E0FEF7DFFFA842FAD0FEF7DBFF49
:101310000546012D0FD0082D02D0202D0ED104E05E
:101320000CB9012413E0641E11E0012C01D100244A
:101330000DE0641C0BE02646304670BDEDA3012293
:101340000021084600F069FF4FF0FF3600BF00BFE4
:1013500014B1012C6ED136E04FF4784000F0D0FE8D
:101360004FF6E07000F0C9FEE7A301220021084615
:1013700000F053FFEBA301220021104600F04DFFC7
:10138000EEA301220021022000F047FF4FF6E0709B
:1013900000F0B6FE4FF4784000F0AFFEEDA301225E
:1013A0000221042000F039FF4FF4784000F0A8FE3D
:1013B0004FF6E07000F0A1FEEBA301220221052010
:1013C00000F02BFF36E04FF4784000F099FE4FF626
:1013D000E07000F092FECCA301220021084600F04C
:1013E0001CFFD0A301220021104600F016FFD3A35A
:1013F00001220021022000F010FF4FF4784000F09D
:101400007FFE4FF6E07000F078FED2A301220221A9
:10141000042000F002FF4FF6E07000F071FE4FF480
:10142000784000F06AFED0A301220221052000F0DE
:10143000F4FE00BF00BF65E770B500240026DAE0C7
:10144000FEF741FFA842FAD0FEF73DFF0546012D09
:101450000FD0082D02D0202D0ED104E00CB90224AB
:101460000AE0641E08E0022C01D1002404E0641CA0
:1014700002E02646304670BD00BF24B1012C3FD0AB
:10148000022C3CD181E04FF4784000F039FE4FF659
:10149000E07000F032FEB9A301220021084600F0FE
:1014A000BCFEBDA301220021104600F0B6FEC1A380
:1014B00001220021022000F0B0FE4FF6E07000F0A3
:1014C0001FFE4FF4784000F018FEC1A30122022154
:1014D000042000F0A2FE4FF4784000F011FE4FF619
:1014E000E07000F00AFEBEA301220221052000F0F8
:1014F00094FEBFA301220221062000F08EFE79E0B7
:101500004FF4784000F0FCFD4FF6E07000F0F5FD80
:101510009AA301220021084600F07FFE9EA301222B
:101520000021104600F079FEA2A301220021022032
:1015300000F073FE4FF4784000F0E2FD4FF6E070EB
:1015400000F0DBFDA2A301220221042000F065FED1
:101550004FF6E07000F0D4FD4FF4784000F0CDFD80
:101560009FA301220221052000F057FE4FF478408E
:1015700000F0C6FD4FF6E07000F0BFFD9CA3012215
:101580000221062000F049FE34E04FF4784000F0DC
:10159000B7FD4FF6E07000F0B0FD99A301220021E5
:1015A000084600F03AFE9CA301220021104600F0FC
:1015B00034FE9FA301220021022000F02EFE84A30E
:1015C00001220221042000F028FE85A3012202212D
:1015D000052000F022FE4FF6E07000F091FD4FF480
:1015E000784000F08AFD82A301220221062000F04B
:1015F00014FE00BF00BF23E770B50024002639E0C9
:10160000FEF761FEA84235D0FEF75DFE0546082DC7
:101610000ED0102D06D0402D0CD10CB9022409E0BB
:10162000641E07E0022C01D1002403E0641C01E0E9
:10163000052070BD00BF24B1012C0AD0022C18D1A6
:101640000FE0002000F05FFD4FF6E07000F058FD65
:101650000FE0002000F057FD4FF6E07000F050FD65
:1016600007E0002000F04FFD4FF6E07000F048FD6D
:1016700000BF00BFC4E72DE9F04100F0B1F94FF61B
:10168000FF7000F040FDFEF703FE32E0002400256D
:1016900000270026FFF7D0FE044624B1012C0FD00E
:1016A000022C25D114E0002000F02DFDFFF7A4FF4F
:1016B0000546052D03D1FFF7DEFFBDE8F08100BF31
:1016C000002000F020FDFFF7BDF8FFF7D4FFF4E79E
:1016D000FFF70CFE064616B1012E08D104E001F01A
:1016E00087F9FFF7C8FFE8E702F0F1F800BF00BF95
:1016F00000BFCBE720202020202041726361646579
:1017000009092020090909002020202020204172F9
:10171000636164650909202009090920202020202F
:1017200000000000202020202020200909090909AC
:10173000202009090920202020200000202020202E
:101740002009090909090920200909092020202068
:10175000200000002020506C61793A20426C6163C7
:101760006B6A61636B2000002020506C61793A2025
:10177000546963546163546F652020002020202049
:101780002057656C636F6D6520746F206F757220D4
:101790002020202000000000202020202020204D9C
:1017A000756C74696D65646961202020202020209B
:1017B000202020002020202020090943656E74721B
:1017C0006521202020202020202020200000000053
:1017D000202020506963747572652020200000006D
:1017E00020202020417564696F2020202000000007
:1017F0002020202047616D657320202020000000FC
:10180000202020202057656C636F6D6520746F2049
:101810006F75722020000000202020202020204D05
:10182000756C74696D65646961202020200000007A
:101830002020202020090943656E74726521202034
:101840002020202000000000800400BF011EA0F125
:101850000100FBD170472DE9F04106460D460027F7
:10186000012D06D1FE48006840F40070FC49086074
:1018700005E0FB48006820F40070F949086007247F
:1018800022E08020F649C8610120FFF7DDFF012D2D
:101890000CD10120A040304018B16802F0498861A5
:1018A0000BE04FF40070EE49C86106E0EC48406977
:1018B000C0F34020A0403843C7B28020E849886187
:1018C0000120FFF7C1FF641E002CDADA3846BDE8BC
:1018D000F08110B504464020E149C861702000F055
:1018E00048FD002000F045FD204600F042FD40206C
:1018F000DB49886110BD10B504464020D849C86155
:10190000722000F036FD201200F033FDE0B200F04E
:1019100030FD4020D249886110BD70B5054628468B
:10192000FFF7D7FF00BF00244020CD49C8617320D6
:1019300000F01FFD002000F01CFD002000F019FD4C
:1019400004464FF6FF7000EA0424002000F011FD69
:1019500004434020C2498861204670BD10B5C1488B
:10196000006820F47C20BF4908600846006C40F401
:101970002A200864BA48006840F08000B84908602E
:1019800040208861802088614020C861012170204A
:10199000FFF761FF01210020FFF75DFF4020B04904
:1019A0008861C86101217320FFF755FF00210846B7
:1019B000FFF751FF04464020A949886108460068A6
:1019C00020F080000860A748006840F42820A5495E
:1019D00008600846006C20F47F200864204610BD93
:1019E00010B5A148006840F480609F49C439C1F82F
:1019F000C4000846D0F8A80140F40010C1F8A801BE
:101A00009848406A20F07060964948629448D0F83F
:101A1000800040F04050924980310860880590492C
:101A2000C1F898000846006840F040000860402077
:101A300088618C48006820F47C208A490860084648
:101A4000006840F42820086040F2C7108749086009
:101A5000022008614860FFF781FF04461CB900209E
:101A6000FFF75BFF0446472C7DD1012080490870B9
:101A70000021EA2000F0A0FC2021EB2000F09CFCDB
:101A80000C21EC2000F098FCC721ED2000F094FC24
:101A90003821E82000F090FC1021E92000F08CFCB7
:101AA0000121F12000F088FC1021F22000F084FCDC
:101AB0000121402000F080FC0021412000F07CFC4E
:101AC0000021422000F078FC1021432000F074FC3B
:101AD0000E21442000F070FC2421452000F06CFC15
:101AE0000421462000F068FC5021472000F064FCEF
:101AF0000221482000F060FC1321492000F05CFC2A
:101B000019214A2000F058FC19214B2000F054FC08
:101B100016214C2000F050FC1B21502000F04CFC02
:101B20003121512000F048FC2F21522000F044FCCC
:101B30003F21532000F040FC3F21542000F03CFCAA
:101B40003E21552000F038FC2F21562000F034FCB7
:101B50007B21572000F030FC0921582000F02CFC9C
:101B60000621592000E094E000F026FC06215A20CE
:101B700000F022FC0C215B2000F01EFC1D215C20EB
:101B800000F01AFCCC215D2000F016FC1B21084659
:101B900000F012FC01211A2000F00EFC2F2124205D
:101BA00000F00AFC5721252000F006FC88212320A4
:101BB00000F002FC3621182000F0FEFB0121192064
:101BC00000F0FAFB0021012000F0F6FB88211F2025
:101BD00000F0F2FB1420FFF737FE82211F2000F0F7
:101BE000EBFB0520FFF730FE92211F2000F0E4FB05
:101BF0000520FFF729FED2211F2000F0DDFB052084
:101C0000FFF722FE5521172000F0D6FB00210846E1
:101C100000F0D2FB11212F2000F0CEFB002131205B
:101C200000F0CAFB0021322000F0C6FB382128203A
:101C300000F0C2FB1420FFF707FE3C21282000F033
:101C4000BBFBA821162000F0B7FB00210E2000F0FE
:101C5000B3FB00210F2000F0AFFB0121102009E0B1
:101C600000C0092000C00240C4C00F400000034073
:101C70005E00001000F0A0FB4021112000F09CFB52
:101C80000021122000F098FB0021132000F094FBAB
:101C900092E10020F94908704FF48071012000F0B2
:101CA0008BFB4FF4E061022000F086FB0021042052
:101CB00000F082FB40F20721082000F07DFB0021AC
:101CC000092000F079FB00210A2000F075FB0021BB
:101CD0000C2000F071FB00210D2000F06DFB0021B5
:101CE0000F2000F069FB0021102000F065FB0021AF
:101CF000112000F061FB0021122000F05DFB0021AB
:101D0000132000F059FB1420FFF79EFD41F2B02193
:101D1000102000F051FB0721112000F04DFB0520A1
:101D2000FFF792FD40F2BD11122000F045FB0520A7
:101D3000FFF78AFD4FF4A051132000F03DFB0E2168
:101D4000292000F039FB0520FFF77EFD002120202F
:101D500000F032FB0021212000F02EFBA4F5A8406A
:101D6000083838B1A0F57C50183800287ED00528F6
:101D70007DD150E040F60D31302000F01DFB41F6E2
:101D80002311312000F018FB41F62641322000F0EB
:101D900013FB42F21C61332000F00EFB42F21941AA
:101DA000342000F009FB40F60B51352000F004FB15
:101DB00041F20601362000F0FFFA4FF4C2613720ED
:101DC00000F0FAFA40F20671382000F0F5FA4FF40C
:101DD0004171392000F0F0FA40F605613A2000F038
:101DE000EBFA40F601613B2000F0E6FA4FF4877110
:101DF0003C2000F0E1FA40F20E513D2000F0DCFA08
:101E000040F203413E2000F0D7FA40F207613F2044
:101E100000F0D2FA61E00021302000F0CDFA40F26B
:101E20000761312000F0C8FA40F20531322000F09D
:101E3000C3FA0021352000F0BFFA41F204613620D8
:101E400000F0BAFA4FF40171372000F0B5FA012121
:101E5000382000F0B1FA40F20771392000F0ACFAF6
:101E600000213C2000F0A8FA0F2101E005E003E08A
:101E70003D2000F0A1FA30E000BF0621302000F044
:101E80009BFA40F20111312000F096FA0321322032
:101E900000F092FA4FF48371352000F08DFA40F68D
:101EA0000231362000F088FA40F20231372000F08B
:101EB00083FA40F20771382000F07EFA07213920BA
:101EC00000F07AFA4FF4C0613C2000F075FA40F25D
:101ED0000B213D2000F070FA00BF00BF0021502010
:101EE00000F06AFAEF21512000F066FA002152203A
:101EF00000F062FA40F23F11532000F05DFAA4F5C1
:101F0000A840083830B1A0F57C50183850B10528E9
:101F100007D100E000BF4FF41C51602000F04CFAE4
:101F200006E000BF4FF42741602000F045FA00BFF3
:101F300000BF0121612000F03FFA00216A2000F07B
:101F40003BFA0021802000F037FA0021812000F0C8
:101F500033FA0021822000F02FFA0021832000F0C4
:101F60002BFA0021842000F027FA0021852000F0C0
:101F700023FA1021902000F01FFA0021922000F097
:101F80001BFA0321932000F017FA4FF48871952073
:101F900000F012FA0021972000F00EFA002198209C
:101FA00000F00AFA41F23801032000F005FA40F28D
:101FB0003711072000F000FA4FF0805030490860D8
:101FC00010BD2DE9F04704460D4616461F462B4826
:101FD000007860B3A019A0F10108E819A0F1010987
:101FE000C4F30F21022000F0E7F9E1B2032000F072
:101FF000E3F9C8F30F21042000F0DEF908F0FF0137
:10200000052000F0D9F9C5F30F21062000F0D4F91E
:10201000E9B2072000F0D0F9C9F30F21082000F041
:10202000CBF909F0FF01092000F0C6F91BE0A9B2C5
:10203000502000F0C1F9E819401E81B2512000F093
:10204000BBF9A1B2522000F0B7F9A019401E81B22D
:10205000532000F0B1F9A9B2202000F0ADF9A1B2EF
:10206000212000F0A9F9BDE8F08710B5F0234FF466
:10207000A07200210846FFF7A4FF10BD5E0000100B
:1020800098C0092070B504460D46D048007820B3AA
:10209000C4F30F21022000F08FF9E1B2032000F019
:1020A0008BF9C4F30F21042000F086F9E1B205207A
:1020B00000F082F9C5F30F21062000F07DF9E9B2A6
:1020C000072000F079F9C5F30F21082000F074F91A
:1020D000E9B2092000F070F907E0A9B2202000F071
:1020E0006BF9A1B2212000F067F92220FFF7F1FB84
:1020F000B7494888FFF7FFFB70BDB5494880704776
:10210000B3490880704770B50546FFF7AEFF22203F
:10211000FFF7DFFB00F03BF9002403E0284600F066
:1021200042F9641CB4F5963FF8D300F038F970BD5D
:102130002DE9FF5F8346164699460E9F4B46324671
:1021400058460199FFF73DFF2220FFF7C2FB00F040
:102150001EF9F01D4FEAD00ABAF1010F16D1002581
:1021600011E097F800807F1C002409E028FA04F1B0
:1021700001F00101964A32F8110000F014F9641CD4
:10218000B442F3D36D1C4D45EBD318E0BAF1020F06
:1021900015D1002511E0B7F80080BF1C002409E02C
:1021A00028FA04F101F00101894A32F8110000F027
:1021B000FAF8641CB442F3D36D1C4D45EBD300F028
:1021C000EEF8BDE8FF9FF8B505460E4617461C46DB
:1021D000A4F12000C4B217B1012F1CD10CE07D483E
:1021E00000EBC400E90006EB460200905000082313
:1021F0000622FFF79DFF0EE004EB4400764901EB59
:10220000001005EB4502D100009030011823102288
:10221000FFF78EFF00BF00BFF8BD2DE9F041064675
:102220000D4617461C4607E014F8013B29466D1C75
:102230003A463046FFF7C7FF20780028F4D1BDE8C2
:10224000F08170B590B006460D46FFF70EFF15B150
:10225000012D1CD10DE0002404E0202001A9085527
:10226000601CC4B2362CF8DB002101AA601C11549A
:102270000DE0002404E0202001A90855601CC4B230
:10228000142CF8DB002101AA601C115400BF00BF10
:1022900001AB2A4600213046FFF7BFFF10B070BDEA
:1022A0002DE9F04781468A4614461E46089F07FBE3
:1022B00004F0870A3346224651464846FFF781FE1E
:1022C0002220FFF706FB00F062F84FF0000812E052
:1022D00000250BE0BD4204D33D49088800F063F8B7
:1022E00003E03B49488800F05EF86D1C601EA84280
:1022F000F0D208F10108B045EAD300F050F8BDE88B
:10230000F0872DE9F05F8046894614461F46DDF8C8
:1023100028A0D3463B46224649464046FFF751FE99
:102320002220FFF7D6FA00F032F8781E00FB04F501
:102330000AE0002605E0A9193BF8110000F033F887
:10234000761CA642F7D32D1B002DF2DA00F027F8F9
:10235000BDE8F09F704710B504462046FFF7B9FA74
:1023600010BD70B504460D462946204600F024F8FD
:1023700070BD01461948816000BF1848C06800F070
:1023800004000028F9D015488068C0B2704710B525
:1023900040201349C8617220FFF7EBFF10BD4020B9
:1023A0000F498861704710B504462012FFF7E1FF1E
:1023B000E0B2FFF7DEFF10BD70B505460C462846BB
:1023C000FFF787FA2046FFF796FA70BD5E0000100F
:1023D0005A00001014490000944C00000000034013
:1023E00000C009201A480068401C194908600846C6
:1023F00000680A2818D006DC032809D005280BD06D
:10240000082822D10CE00D2812D00F281DD113E08E
:1024100001201049087019E001200F49087015E0EB
:1024200001200C49087011E001200B4908700DE0F3
:1024300001200849087009E00020054908600120D2
:10244000064908700449087000BF00BF00BF70470C
:1024500060000010650000106400001066000010AD
:10246000002000E0401CFE498842FBDD7047016807
:102470004F2902D15821016004E00168582901D197
:102480004F21016070472DE9F04104460E46174682
:102490001D46F448005D30B1F3A30122114600202F
:1024A000FFF7BBFE18E0F549286841F82400012039
:1024B000EC4908554FF6FF70FFF71FFE2B780122FD
:1024C00039463046FFF77FFE2846FFF7D0FFEC483D
:1024D0000068401CEA490860FFF7C2FFFFF7C0FF31
:1024E000BDE8F0812DE9F047804600260024002554
:1024F000FDF7CEFEBEE0FDF7E6FE07462AE0102F10
:102500001DD004DC012F20D0082F20D104E0202F83
:1025100008D0402F1BD10CE06D1E002D01DAED1C00
:1025200016E015E06D1C032095FBF0F100FB115542
:102530000EE0641E002C01DAE41C09E008E0641CD3
:10254000032C01DB002403E002E0012600E000BFD1
:1025500000BFB946B945D2D12A46CAA1CB4801F03D
:1025600099FCCA4B012202210820FFF756FE2246A1
:10257000C7A1C84801F08EFCC64B012205210820E6
:10258000FFF74BFE55B94CB9012E07D10026434643
:10259000042203210020FFF776FF6CE0012D0AD111
:1025A0004CB9012E07D10026434608220321012001
:1025B000FFF769FF5FE0022D0AD14CB9012E07D168
:1025C000002643460F2203210220FFF75CFF52E062
:1025D0005DB9012C09D1012E07D100264346042202
:1025E00005210320FFF74FFF45E0012D0BD1012C02
:1025F00009D1012E07D100264346082205210420D7
:10260000FFF741FF37E0022D0BD1012C09D1012E3C
:1026100007D1002643460F2205210846FFF733FF66
:1026200029E05DB9022C09D1012E07D100264346CD
:10263000042207210620FFF726FF1CE0012D0BD105
:10264000022C09D1012E07D100264346082207217A
:102650000846FFF718FF0EE0022D0BD1022C09D11E
:10266000012E07D1002643460F2207210820FFF73D
:102670000AFF00E03FE700BFBDE8F0872DE9F04723
:1026800006460F4690469946002409E0002504E0DE
:1026900039197019FFF7F6FC6D1C4545F8DB641C11
:1026A0004C45F3DBBDE8F08710B50020FFF72BFDAC
:1026B0000020FFF725FD4FF6FF70FFF71EFD76A304
:1026C000012211460020FFF7A8FD79A3012211463F
:1026D0001046FFF7A2FD7CA3012211460220FFF75E
:1026E0009CFD79A3012211460320FFF796FD76A3F6
:1026F000012211460420FFF790FD73A30122114629
:102700000520FFF78AFD70A3012211460620FFF77E
:1027100084FD6DA3012211460720FFF77EFD6AA309
:10272000012211460820FFF778FD6DA30122114612
:102730000920FFF772FD05234FF4827264211E20E9
:10274000FFF79CFF05234FF48272A0211E20FFF7A4
:1027500095FF962305223C216E20FFF78FFF9623DD
:1027600005223C21CD20FFF789FF10BD10B50020C8
:10277000FFF7C9FC0020FFF7C3FC4FF6FF70FFF71F
:10278000BCFC57A3012211460020FFF746FD4EA3D3
:10279000012211461046FFF740FD4BA301221146CE
:1027A0000220FFF73AFD54A3012211460320FFF750
:1027B00034FD45A3012211460420FFF72EFD42A35C
:1027C000012211460520FFF728FD3FA301221146F3
:1027D0000620FFF722FD3CA3012211460720FFF748
:1027E0001CFD39A3012211460820FFF716FD3CA36A
:1027F000012211460920FFF710FD10BD70B50546F6
:102800000E463068582806D141A3012211461046D1
:10281000FFF703FD08E030684F2805D124A301220B
:1028200011461046FFF7F9FC002485E0134850F8E4
:1028300024100246601C52F8200081427BD11146D0
:10284000601C51F82010A01C52F82000814272D167
:10285000104650F824004F2866D1012028606AE015
:10286000404B4C008C0100102A2A545259204147F9
:1028700041494E2A2A202020200000007400001028
:102880009800001020792564000000006D00001001
:1028900078256400680000102A2A2A202054494321
:1028A0002054414320544F45202A2A2A000000008A
:1028B0002A202020506C61796572204F2074757237
:1028C0006E20202A000000002A2020202020202026
:1028D00020202020202020202020202A000000006E
:1028E0002A2A2A2A2A2A2A2A2A2A2A2A2A2A2A2A48
:1028F0002A2A2A2A000000002A20202020544943A6
:102900002054414320544F452020202A000000003D
:102910002A202020506C61796572205820747572CD
:102920006E20202A00000000874850F82400582814
:1029300001D101202860E41C0A2CFFF677AF0024A7
:1029400021E0814850F824100246A01C52F82000D3
:10295000814217D11146E01C51F82010601D52F839
:10296000200081420ED1104650F824004F2802D199
:102970000120286006E0744850F82400582801D14E
:1029800001202860641C032CDBDB6F4800686E4963
:102990000969884212D16C4800696B49096A88420A
:1029A0000CD1694800684F2802D10120286005E059
:1029B00065480068582801D1012028606248806875
:1029C00061490969884212D15F4800695E49896995
:1029D00088420CD15C4880684F2802D101202860D1
:1029E00005E059488068582801D10120286070BD51
:1029F000F8B500254F2000900124002600205349FF
:102A0000086001F069F8FDF743FCFEF7E9FFFFF706
:102A1000ADFEFFF749FE0020FFF775FB6846FFF7A4
:102A200026FD002C4AD00020FFF76DFB0020FFF7A9
:102A300067FB4FF6FF70FFF760FBAFF25C130122FC
:102A400011460020FFF7E9FBAFF26C13012211469B
:102A50001046FFF7E2FBAFF2781301221146022085
:102A6000FFF7DBFB3AA3012211460320FFF7D5FB5A
:102A70003DA3012211460420FFF7CFFB3DA3012215
:102A800011460520FFF7C9FB40A30122114606208D
:102A9000FFF7C3FB43A3012211460720FFF7BDFB4D
:102AA00046A3012211460820FFF7B7FBAFF2D0136F
:102AB000012211460920FFF7B0FB43E0AFF2E0131B
:102AC000012211460020FFF7A8FB42A30122114674
:102AD0001046FFF7A2FBAFF210230122114602209D
:102AE000FFF79BFB3FA3012211460320FFF795FB55
:102AF00042A3012211460420FFF78FFB0122114659
:102B00000520009BFFF789FBAFF244230122114609
:102B10000620FFF782FB2FA3012211460720FFF7B3
:102B20007CFBAFF25C23012211460820FFF775FB06
:102B3000AFF25423012211460920FFF76EFBFEF786
:102B40009AFDF8BD00BFFCE774000010980000106B
:102B50002A2A2A2A2A2A2A445241572A2A2A2A2A4F
:102B60002A2A2A2A00000000090909090909090975
:102B7000092020002A2A2A2A202020202020202064
:102B8000202020202A2A2A2A0000000020444F5713
:102B90004E20544F20504C415920414741494E2A24
:102BA000000000002A2A2A2020555020544F204D92
:102BB000454E5520202A2A2A000000002A2A2020DB
:102BC00020202020202020202020202020202A2AF1
:102BD000000000002A090909090909090909202A30
:102BE000000000002A2A2A2A2A2A2A57696E6E65BE
:102BF00072212A2A2A2A2A2A0000000009090950DB
:102C00006C617965723A09202020090900000000F2
:102C10001FB50146FE4C1DCC8DE81D000A46C817A5
:102C200001EB90708010A1EB80005DF8200004B0F3
:102C300010BD10B58EB004463422F549103101A8FC
:102C400001F0F4F90D2094FBF0F100FB114001A913
:102C500051F820000EB010BD2DE9F04100260024EF
:102C600018E0002513E02846FFF7E3FF074620465B
:102C7000FFF7CEFF80463B464246E6A1E74801F01B
:102C800009F9E648E64941F82600761C6D1C0D2D31
:102C9000E9DB641C042CE4DBBDE8F0817047002014
:102CA00000E0401CDF498842FBDD704710B5044658
:102CB00020684F2808D1DCA3012200211046FFF72D
:102CC000ACFA582020600AE02068582807D1DCA31D
:102CD000012200211046FFF7A0FA4F20206010BD0E
:102CE0002DE9F74F8AB08246154600200190002654
:102CF00048E05246C7A107A80B9B01F0CBF8C84992
:102D000051F8260007A901F0C3F9002839D0D248AC
:102D1000805D012801D1019036E00120CE4988551F
:102D200000200190002411E02046FFF771FF834648
:102D3000514601F0ADF940B128684F2802D1C7488B
:102D4000046001E0C648046002E0641C042CEBDB74
:102D500000BF002411E02046FFF76BFF83460B996C
:102D600001F096F940B128684F2802D1BD480460AF
:102D700001E0BD48046002E0641C0D2CEBDB00BFE9
:102D800002E0761C342EB4DB00BF4AE0FDF7F6F912
:102D90008346C0170BEB90708010ABEB800000F106
:102DA0000108FDF7EBF90D2190FBF1F201FB120098
:102DB00000F101094046FFF72BFF03904846FFF75B
:102DC00038FF029093A104A8DDE9023201F062F815
:102DD000002713E0924951F8270004A901F058F99F
:102DE00058B19D48C05D012801D1019005E0012046
:102DF0009949C8550020019002E07F1C342FE9DB7F
:102E000000BF28684F2806D19448C0F80080954834
:102E1000C0F8009005E09248C0F800809248C0F8E1
:102E2000009001980128B1D02846FFF73FFFFFF737
:102E300036FFFFF734FF0DB0BDE8F08F2DE9F04706
:102E400006460F4690469946002409E0002504E016
:102E500039197019FFF716F96D1C4545F8DB641C2C
:102E60004C45F3DBBDE8F08710B50020FFF74BF9C8
:102E70000020FFF745F94FF6FF70FFF73EF97BA3FF
:102E8000012200210846FFF7C8F96DA301220021A5
:102E90001046FFF7C2F97AA3012200210220FFF7B2
:102EA000BCF977A3012200210320FFF7B6F974A330
:102EB000012200210420FFF7B0F971A301220021B3
:102EC0000520FFF7AAF96EA3012200210620FFF7D3
:102ED000A4F971A3012200210720FFF79EF974A332
:102EE000012200210820FFF798F977A30122002191
:102EF0000920FFF792F905234FF4827251211E2019
:102F0000FFF79CFF962305223C211846FFF796FF0A
:102F100010BD10B5FEF764FD0020FFF7F4F80020A7
:102F2000FFF7EEF84FF6FF70FFF7E7F866A3012210
:102F300000210846FFF771F951A301220021104634
:102F4000FFF76BF94EA3012200210220FFF765F97C
:102F500063A3012200210320FFF75FF948A30122A8
:102F600000210420FFF759F945A301220021052083
:102F7000FFF753F942A3012200210620FFF74DF984
:102F80003FA3012200210720FFF747F93CA30122BC
:102F900000210820FFF741F94BA30122002109205D
:102FA000FFF73BF9FFF77BFEFFF779FE10BD10B589
:102FB00004460020FFF7A7F80020FFF7A1F84FF61E
:102FC000FF70FFF79AF840A3012200210846FFF79F
:102FD00024F92BA3012200211046FFF71EF946A376
:102FE000012200210220FFF718F920684F2809D19B
:102FF00047480078012805D146A30122002103207B
:10300000FFF70BF92068582800D18DE096E000000A
:103010009461000025732D257300000098010010B5
:10302000B0010010404B4C002A202020506C6179E8
:1030300065722031207475726E20202A0000000015
:103040002A202020506C61796572203020747572BE
:103050006E20202A0000000080020010A80000104E
:10306000B0000010AC000010B40000102A2A2A2082
:1030700020426C61636B6A61636B202A2A2A00001C
:103080002A20202020202020202020202020202036
:103090002020202A000000002A202044726177208E
:1030A00020202020202020202020202A0000000096
:1030B0002A202053746179202020202020202020E5
:1030C0002020202A000000002A2A2A2A2A2A2A2A26
:1030D0002A2A2A2A2A2A2A2A2A2A2A2A00000000F8
:1030E0002A20202020426C61636B6A61636B202080
:1030F0002020202A000000002A2020202057696E6E
:103100006E65723A202020202020202A0000000036
:10311000C00000102A20202020506C6179657220A8
:103120003020202020202A00FE480078012805D1E8
:10313000FDA3012200210320FFF76FF8AFF2C403C3
:10314000012200210420FFF768F8AFF2CC0301222E
:1031500000210520FFF761F8AFF2DC030122002116
:103160000620FFF75AF8AFF2E803012200210720FA
:10317000FFF753F8AFF2F803012200210820FFF710
:103180004CF8AFF2BC03012200210920FFF745F8FB
:10319000FFF785FDFFF783FD4FF6FF70FEF7B3FFE6
:1031A000FFF7B7FEFFF760FEFFF756FD0020E3498B
:1031B0000860E349086010BD10B586B00446206879
:1031C0004F287CD1DD480068152812D1DC48006802
:1031D00015280EDC0120D34908700020D74908606B
:1031E000D74908602046FFF761FD2046FFF7DFFE64
:1031F000F3E1D4480068012838DBD2480068082889
:1032000034DCCE480068CF490968084415281FDC23
:10321000CA480068CB4909680844C849086008469C
:10322000C9A1026804A800F035FE04AB0122032105
:103230000620FEF7F2FFC248C3A1026802A800F010
:1032400029FE02AB01220A210620FEF7E6FF0DE06F
:103250000120B44908700020B8490860B8490860E6
:103260002046FFF723FD2046FFF7A1FEB548006882
:10327000092827DBB34800680B2823DCAF48006827
:103280000A3015281EDCAD4800680A30AB490860DA
:103290000846ADA1026804A800F0FCFD04AB0122C1
:1032A00003210620FEF7B9FFA548A7A1026802A8DE
:1032B00000F0F0FD02AB01220A21062000E072E0DE
:1032C000FEF7ABFF9F4800680C2891D19B4800682F
:1032D0000B30152849DB99480068401C152826DB6F
:1032E00001209049087000209449086094490860C2
:1032F000924895A1026804A800F0CCFD04AB01221D
:1033000003210620FEF789FF8D488FA1026802A8DD
:1033100000F0C0FD02AB01220A210620FEF77DFF6E
:103320002046FFF7C3FC2046FFF741FE55E18348E6
:103330000068401C81490860084683A1026804A80F
:1033400000F0A8FD04AB012203210620FEF765FF73
:103350007B487DA1026802A800F09CFD02AB01221F
:103360000A210620FEF759FF37E1744800680B3048
:1033700072490860084674A1026804A800F08AFD3A
:1033800004AB012203210620FEF747FF6C486EA123
:10339000026802A800F07EFD02AB01220A2106208D
:1033A000FEF73BFF19E166480068152812DB634809
:1033B000006815280EDC01205A49087000205F497A
:1033C00008605F4908602046FFF770FC2046FFF761
:1033D000EEFD02E15D480068012838DB5B480068CB
:1033E000082834DC564800685849096808441528FC
:1033F0001FDC534800685549096808445049086073
:103400004E4851A1026804A800F044FD04AB01221B
:1034100003210620FEF701FF49484BA1026802A8DC
:1034200000F038FD02AB01220A210620FEF7F5FE6E
:103430000DE001203B4908700020404908604049E8
:1034400008602046FFF732FC2046FFF7B0FD3F48FA
:103450000068092836DB3D4800680B2832DC384814
:1034600000683A490968084415281DDC344800689A
:103470000A3033490860314833A1026804A800F0DB
:1034800009FD04AB012203210620FEF7C6FE2C48ED
:103490002DA1026802A800F0FDFC02AB01220A2166
:1034A0000620FEF7BAFE0DE001201E49087000203C
:1034B00022490860224908602046FFF7F7FB2046B2
:1034C000FFF775FD1F4800680C2846D11C480068AE
:1034D0000B30152862DB1A480068401C15283DDBBC
:1034E0000120104908700020144908601449086040
:1034F000124815A1026804A800F0CCFC04AB01221C
:1035000003210620FEF789FE0D480FA1026802A8DC
:1035100000F0C0FC02AB01220A210620FEF77DFE6E
:10352000204615E0C00000102A20202020506C61A9
:10353000796572203120202020202A00B800001058
:10354000BC000010AC00001025640000B4000010A6
:10355000FFF7ACFB2046FFF72AFD3EE0EC48006891
:10356000401CEB490860EB48AFF22401026804A854
:1035700000F090FC04AB012203210620FEF74DFE73
:10358000E348AFF23C01026802A800F083FC02AB02
:1035900001220A210620FEF740FE1EE0DC480068FA
:1035A0000B30DB490860DB48AFF26401026804A815
:1035B00000F070FC04AB012203210620FEF72DFE73
:1035C000D348AFF27C01026802A800F063FC02ABB2
:1035D00001220A210620FEF720FECF48AFF2980113
:1035E000026801A800F056FC01AB01220921042069
:1035F000FEF713FEC948AFF2B0010268684600F05A
:1036000049FC6B4601220B210420FEF706FE06B0A2
:1036100010BD2DE9FF5F06464FF000080024FCF7BF
:1036200037FE53E1FCF74FFE05461FE0012D12D097
:10363000082D04D0202D08D0402D14D10EE0641E9A
:10364000002C01DAA41C0FE00EE0641C022C01DB4C
:10365000002409E008E04FF0010805E0FEF70BF850
:1036600004B0BDE8F09F00BF00BFAB46AB45DDD165
:10367000ABA3012211460220FEF7CFFDABA301222E
:103680000B210220FEF7C9FD002C7DD10020FEF7A2
:1036900034FD4FF6FF70FEF733FDAFF204630122F5
:1036A00000210720FEF7B9FD4FF6FF70FEF725FD5C
:1036B0000020FEF725FDAFF208630122002108205B
:1036C000FEF7ABFDB8F1010F75D1A046FCF756FD32
:1036D0000746C01707EB90708010A7EB800000F141
:1036E0000109FCF74BFD0D2190FBF1F201FB1200EB
:1036F00000F1010A30684F285ED14846FFF788FA8A
:1037000003905046FFF795FA02903246DDE9021029
:10371000FFF7E6FA88480068FFF77AFA03907E48D8
:103720000068FFF786FA02903046FFF745FD012159
:103730000420FEF786FD01210520FEF782FD002012
:10374000FEF7DEFC4FF6FF70FEF7D7FCAFF2D0635A
:10375000012200210420FEF760FDAFF2DC630122AC
:1037600000210520FEF759FD012211460420029B8D
:10377000FEF753FD012211460520039BFEF74DFD88
:1037800001220A21042000E073E0009BFEF745FDC2
:1037900001220A210520019BFEF73FFD4FF6FF7035
:1037A000FEF7ABFC0020FEF7ABFC962305223C2184
:1037B0001846FFF743FB87E04846FFF729FA0190D8
:1037C0005046FFF736FA00903246DDE90010FFF769
:1037D00087FA5A480068FFF71BFA01904F480068C3
:1037E000FFF727FA00903046FFF7E6FC012104209E
:1037F000FEF727FD01210520FEF723FD0020FEF73F
:103800007FFC4FF6FF70FEF778FCAFF28C7301225D
:1038100000210420FEF701FDAFF29C73012200217C
:103820000520FEF7FAFC012211460420029BFEF758
:10383000F4FC012211460520039BFEF7EEFC012259
:103840000A210420009BFEF7E8FC01220A21052042
:10385000019BFEF7E2FC4FF6FF70FEF74EFC0020E6
:10386000FEF74EFC962305223C211846FFF7E6FAA8
:103870002AE04FF6FF70FEF740FC0020FEF740FC08
:10388000AFF2EC73012200210720FEF7C6FC0020F6
:10389000FEF733FC4FF6FF70FEF732FCAFF2F07329
:1038A000012200210820FEF7B8FC4FF6FF70FEF75A
:1038B00024FC0020FEF724FCB8F1010F04D14FF0E6
:1038C00000083046FFF7F2F94FF00008AAE608B505
:1038D0004F20009000F000F9FCF7DAFCFEF780F8CA
:1038E0004FF6FF70FEF70FFCFFF713FBFFF7BCFA74
:1038F000FFF7B2F90020074908600549086005E0B4
:103900006846FFF786FE6846FFF751FBF8E70000C0
:10391000BC000010B8000010AC000010B400001093
:10392000506C61796572203000000000506C617944
:103930006572203100000000A8000010B0000010E7
:103940002DE9F047F7480068C0F3016003287DD1F6
:10395000F4488430006800F0030030B1012830D012
:10396000022859D003282BD100E000BFED480068A1
:10397000C0F30740441C0221EA488838D0F8880088
:10398000C0F30E00401CA1FB0001E74B4FF0000C00
:10399000A0FB037901FB039100FB0C112246634657
:1039A000384600F0FFF90546DE487C300068C0B2BA
:1039B000441C22460023284600F0F4F9DB49086045
:1039C00056E0D8480068C0F30740441C0221D5489F
:1039D0008838D0F88800C0F30E00401CA1FB00100E
:1039E000D34A4FF0000CA1FB027900FB029001FBCF
:1039F0000C0122466346384600F0D4F90546C94812
:103A00007C300068C0B2441C22460023284600F0E7
:103A1000C9F9C64908602BE0C2480068C0F30740F6
:103A2000441C0221BF488838D0F88800C0F30E003B
:103A3000401CA1FB00124FF400400023A1FB0079C1
:103A400002FB009001FB0301224600E011E0384632
:103A500000F0A8F90546B3487C300068C0B2441CA9
:103A600022460023284600F09DF9B049086000BFB7
:103A700030E0AC488430006800F0030030B1012829
:103A800010D0022819D0032823D100E000BFA54898
:103A90007C300068C0B2401CA349B1FBF0F0A349E0
:103AA000086016E09F487C300068C0B2401CA04906
:103AB000B1FBF0F09D4908600BE09A487C3000684B
:103AC000C0B2401C4FF40041B1FBF0F097490860D0
:103AD00000BF00BFBDE8F0872020964908609148EC
:103AE0008838D0F8A00100F0200030B100BF914824
:103AF000006800F040000028F9D0032089497C319B
:103B00000860002087498839C1F8A80189490C312B
:103B10000860012083498431086087488149091F72
:103B20000860AA207F49091D08605520086001200F
:103B30007C4908390860AA207A49091D0860552087
:103B400078498839C1F88C0000BF7648006800F0D9
:103B500080600028F9D00320724908390860AA2043
:103B600070498839C1F88C0055206E49091D0860DC
:103B700000BF6C48006800F04070B0F1407FF8D1A1
:103B8000232068491C310860AA2066498839C1F899
:103B9000AC00552063492431086001206149183187
:103BA0000860AA205F492431086055205D498839A2
:103BB000C1F8AC0000BF5B482030006800F48060B2
:103BC0000028F8D00320574918310860AA20554929
:103BD0008839C1F8AC00552052492431086000BF33
:103BE00050482030006800F44070B0F5407FF7D1B5
:103BF00052484C493C31086000204A498839C1F894
:103C0000C8010846006820F4704040F48040086015
:103C1000704744480068C0F3016003285ED1414802
:103C20008430006800F0030030B1012820D0022861
:103C300039D0032851D100E000BF3A480068C0F3F2
:103C40000E00401C410037488838D0F88800C0F387
:103C50000740401CB1FBF0F03349484331497C3107
:103C60000968C9B2491CB0FBF1F03549086034E07D
:103C70002C480068C0F30E00401C410029488838D9
:103C8000D0F88800C0F30740401CB1FBF0F0284991
:103C9000484324497C310968C9B2491CB0FBF1F0A2
:103CA0002749086019E01F480068C0F30E00401C57
:103CB00041001C488838D0F88800C0F30740401CF9
:103CC000B1FBF0F0C10317487C300068C0B2401C63
:103CD000B1FBF0F01A49086000BF3FE011488430A2
:103CE000006800F0030030B1012810D0022829D06C
:103CF000032832D100E000BF0A487C300068C0B21F
:103D0000401C0949B1FBF0F00D49086025E0054869
:103D10007C300068C0B2401C0549B1FBF0F0084996
:103D200008601AE088C00F4000093D00C400001080
:103D3000001BB700A0C10F4063000500DE87280408
:103D4000C800001006480068C0B2401C4FF4004193
:103D5000B1FBF0F00349086000BF00BF70470000EE
:103D600004C10F40C80000100948804709480047B7
:103D7000FEE7FEE7FEE7FEE7FEE7FEE7FEE7FEE71B
:103D8000FEE7FEE704480549034A054B704700007B
:103D9000D93A0000CD000000F8030010F80500102B
:103DA000F803001053EA020C00F069802DE9F04B93
:103DB0004FF00006002B1FBFB3FA83F503FA05F49A
:103DC00024FA05F65E4012BF1643B2FA82F502FAF3
:103DD00005F4C5F120051EBF22FA05FC44EA0C04D7
:103DE000203556EA044C4FEA144418BF641C4FF0C7
:103DF00000084FF00009904271EB030C39D3002901
:103E000019BFB1FA81F701FA07F6B0FA80F700FAA4
:103E100007F6C7F120071EBF20FA07FC46EA0C068A
:103E20002037B6FBF4FCA7EB0507103F07F01F0B8C
:103E3000CBF120060CFA0BFB2CFA06F644BFB34676
:103E40000026202FA4BF5E464FF0000B5BEA060C55
:103E500008BF4FF0010B19EB0B09ABFB027C48EBE1
:103E60000608C01B06FB02CC0BFB03CC71EB0C015C
:103E7000C1E70B46024641464846BDE8F08B13B504
:103E80004FF000004FF00001AFF30080BDE81C4090
:103E9000704700000FB41CB5074B06AA7B44694667
:103EA0000090059800F093F900206946FCF721FA8C
:103EB0001CBC5DF814FB000053C4FFFF2DE9F0416A
:103EC0000E460446002020622046E168884730B351
:103ED000252805D0D4E901219047206A401CF2E74B
:103EE000E168204600278847050018D0A5F1410069
:103EF000192802D820354FF400673246294620465B
:103F00002760FCF71DF940B1012804D0F61D26F00A
:103F100007060836D8E7361DD6E72846DAE7206ACE
:103F2000BDE8F08170B50C460546012A05D0287819
:103F3000800600D5EA69002302E0012305E05B1C4E
:103F4000934202D2E05C0028F9D1A869E618C01AB1
:103F5000A861286A184428622846AFF3008004E06C
:103F6000D5E9012114F8010B9047B442F8D3284653
:103F7000AFF3008070BD00002DE9F041064600243B
:103F800010687529314616A510D0AFF300800028BF
:103F900002DA404213A507E031688A0701D512A56D
:103FA00002E0490704D511A5012401E0AFF3008028
:103FB00000210A2206F1240709E0B0FBF2FCB0FB65
:103FC000F2F302FB1C00303078541846491C0028DC
:103FD000F3D123462A463046BDE8F04100F098B8B8
:103FE000000000002D0000002B0000002000000059
:103FF0000B4910B5A1F17C020A4CC2E937123721F6
:1040000006E000EB104342F82130074B00FB034071
:104010000B1EA1F10101F4DC10BD0120E8E7000056
:1040200030030010E119D666CD0D010010B5203A1D
:10403000C0F00B80B1E81850203AA0E81850B1E861
:104040001850A0E81850BFF4F5AF5FEA027C24BF17
:10405000B1E81850A0E8185044BF18C918C0BDE80E
:1040600010405FEA827C24BF51F8043B40F8043BD7
:1040700008BF7047D20728BF31F8023B48BF11F88C
:10408000012B28BF20F8023B48BF00F8012B7047E6
:104090004FF0013C50F8042B51F8043B9A4221D1D7
:1040A000A2EB0C03934313EACC1317D150F8042B63
:1040B00051F8043B9A4215D1A2EB0C03934313EA47
:1040C000CC130BD150F8042B51F8043B9A4209D180
:1040D000A2EB0C03934313EACC13DBD04FF00000A8
:1040E000704700BFD01A01BAB1FA81F101F018018E
:1040F00022FA01F0CB40C1F12001DBB2C0B2C01AFC
:104100002CFA01F3D11A914311EAC311E6D1704799
:104110002DE9F0470D4699469246044600F12408E1
:104120000168880604D5E06921F01001216000E0F3
:104130000120A84201DD471B00E00027A1697A1990
:1041400002EB0900081AA0612078C00602D42046BC
:10415000AFF30080002608E0D4E901211AF8060038
:104160009047206A401C761C20624E45F4DB207884
:10417000C0060AD52046AFF3008006E0D4E901214D
:1041800030209047206A401C2062381EA7F10107AA
:10419000F4DC07E0D4E9012118F805009047206A13
:1041A000401C2062281EA5F10105F3DC2046AFF378
:1041B00000802078000602D50220BDE8F0870120AB
:1041C000FBE7000001694A1C02610878704700B5EE
:1041D0008FB0CDE901310021059105497944CDE940
:1041E000031011466846FFF769FE0FB000BD0000DE
:1041F000E5FFFFFF10B5436913B1AFF3008001E0A5
:10420000FFF790FE012010BD127800F124010A7022
:1042100000224A700122EDE711684FF0FF32E9E712
:10422000754600F02BF8AE4605006946534620F06F
:104230000700854618B020B5FFF7A4FDBDE8204073
:104240004FF000064FF000074FF000084FF0000B52
:1042500021F00701AC46ACE8C009ACE8C009ACE805
:10426000C009ACE8C0098D46704710B50446AFF3ED
:1042700000802046BDE81040FBF779BF004870473A
:104280009803001001491820ABBEFEE7260002008B
:104290007047000010B52848007800F01F0010B1EA
:1042A00001283ED13AE02448C078012804D00228F1
:1042B00007D003282ED118E02048214C206012237B
:1042C0002AE02049002204E0087808B14888014427
:1042D000521C194880789042F6D1087808B900201D
:1042E00010BD174801604B8816E01749002204E012
:1042F000087808B108780144521C0F488078904231
:10430000F6D1087808B90020EAE70D480160006896
:10431000037801E00020E3E700BF04E000BF0020D5
:10432000DEE70020DCE700BF05488088984201D91D
:10433000034CA3800120D3E7200000102048000098
:104340001800001032480000A048000027480078FC
:1043500000F01F0020B1012806D0022841D116E04C
:104360002348244B18603EE02348007860B11F4882
:104370000079224B1B78984206DA0020204B1880E7
:1043800018461C4B186001E0002070472BE01748CE
:10439000007900F08F0101F0800028B101F00F03D7
:1043A0004FF48030984001E00120884002461248D6
:1043B000007810B901F00F0080B912480068104071
:1043C00060B111480068104008B1012000E00020F1
:1043D0000B4B18801846074B186001E00020D4E70B
:1043E00001E00020D1E700BF0120CEE7200000104F
:1043F0000000001018000010030000101000001052
:10440000CC000010040000100800001070B5064633
:104410003348007800F01F0020B101281DD0022889
:1044200058D11CE02E484088012813D146B1FCF732
:10443000DFFB2C48008840F002002A4908800BE08E
:104440000020FCF7D5FB2748008820F00200254912
:10445000088001E0002070BD3EE00020FBE720481E
:10446000007900F08F0404F0800028B104F00F01FF
:104470004FF48030884001E00120A04005461A48F2
:10448000007820B304F00F0008B3184800682840F3
:10449000E8B113484088C0B946B12046FCF711FC8A
:1044A0001348006828431249086012E01148006868
:1044B000284008B10120CEE72046FCF70FFC0C484D
:1044C0000068A8430A49086003E00020C3E7002011
:1044D000C1E701E00020BEE700BF0120BBE700000C
:1044E0002000001000000010030000100400001065
:1044F000080000100C0000102DE9F0410026634870
:10450000007800F01F0000287ED1604880780028E5
:104510007BD05F4D7EE06878022804D0042851D01B
:10452000052870D150E0687958498978884245D18A
:1045300056488078574908702879574908700024F0
:1045400003E0002055490855641C042CF9D30124CC
:1045500014E00120A04052490968084010B12046EB
:10456000FCF795FB4FF48030A0404D4909680840A6
:1045700018B144F08000FCF78AFB641C102CE8D3CF
:104580004FF001104649086000204649086046493E
:1045900008600120FCF72DFBE87900F0400030B105
:1045A0004248008840F001004049088009E03F4847
:1045B000008820F001003D49088002E06888054439
:1045C00028E020E0EE781EE0E6B9A87800F08F043D
:1045D00004F0800028B104F00F014FF480308840CF
:1045E00001E00120A04007462D48006838432C49CF
:1045F00008602846FCF71BFB2046FCF73BFB2046E7
:10460000FCF752FB00BF01E03AE008E000BF287869
:10461000054400BF287800287FF47DAF26E0002005
:104620001C490870012414E00120A0401C490968BD
:10463000084010B12046FCF72AFB4FF48030A04020
:1046400017490968084018B144F08000FCF71FFBC7
:10465000641C102CE8D34FF00110114908600020B1
:104660001049086010490860FCF7C3FA07488078D1
:1046700008490978884202D00020BDE8F08101E0B5
:104680000020FAE700BF0120F7E70000200000103B
:10469000324800000300001010000010110000104C
:1046A00004000010080000100C00001000000010B2
:1046B0002DE9F05F0027B846BB46B946424800786E
:1046C00000F01F00012879D14048007810B900207F
:1046D000BDE8F09F4FF0000A3D4C6AE06078022888
:1046E00004D004280BD005285FD11EE0607937493B
:1046F0000978884202D0608804445AE055E0A778DF
:1047000094F803804FF000092F480079B8420BD18C
:104710002D488078404507D14FF0010A2D4810F808
:1047200007B0014601F807803FE027480079B8420A
:104730003AD1A07800F08F0606F0800028B106F08C
:104740000F014FF48030884001E00120B040054661
:104750001D488078404515D11F48006828431E49F0
:1047600008601E480068A8431C4908602046FCF702
:104770005EFA3046FCF77EFA3046FCF795FA49EAD5
:10478000050911E0D8450FD109EA050060B91248C2
:104790000068A8431049086010480068A8430F4902
:1047A00008603046FCF773FA00BF00BF207804446D
:1047B00000BF2078002891D102E0FFE7002087E7C2
:1047C00000BF504684E700002000001003000010E6
:1047D0003248000011000010040000100800001012
:1047E0009F0300000000000000000000BF01000067
:1047F00000000000000000000000000000000000B9
:1048000000000000000000000000000000000000A8
:104810000000000000000000000000000000000098
:104820001201000200000040C91F02400001010205
:10483000030109026D00020100803209040000003A
:10484000010100000924010001270001010C2402DC
:10485000010101000100000000092406020101031A
:104860000000092403030103000200090401000001
:1048700001020000090401010101020000072401F6
:10488000010101000B24020101021001007D000959
:1048900005030140000100000725010000000000A1
:1048A000040309041C034E0058005000200053006C
:1048B00065006D00690063006F006E0064002000F9
:1048C0002A034E005800500020004C0050004300C6
:1048D0003100370078007800200053007000650038
:1048E00061006B006500720020001A03440045005F
:1048F0004D004F00300030003000300030003000FC
:1049000030003000800008208001082010000000E6
:104910001400000000000000000000000404040473
:10492000040004000A0A0A00000000000A0A1F0A24
:104930001F0A0A00041E050E140F040003130804C6
:104940000219180002050502150916000C0C0402D4
:104950000000000008040202020408000204080823
:10496000080402000004150E0E1504000004041FC4
:1049700004040000000000000C0C04020000001FF2
:104980000000000000000000000C0C0000100804F3
:10499000020100000E11131519110E000406040483
:1049A00004040E000E11100E01011F001F10080C50
:1049B00010110E00080C0A091F0808001F010F1033
:1049C00010110E001C02010F11110E001F10100813
:1049D000040201000E11110E11110E000E11111E14
:1049E000100807000000040004000000000004009C
:1049F00004040200100804020408100000001F0054
:104A00001F00000002040810080402000E11100C20
:104A1000040004000E11151D0D011E00040A1111E1
:104A20001F1111000F11110F11110F000E110101B3
:104A300001110E000F11111111110F001F01010FB3
:104A400001011F001F01010F010101001E110101E1
:104A500019111E001111111F111111000E0404046F
:104A600004040E001C0808080809060011090503C3
:104A7000050911000101010101011F00111B15159C
:104A80001511110011111315191111000E11111129
:104A900011110E000F11110F010101000E11111162
:104AA000150916000F11110F050911000E11010E45
:104AB00010110E001F15040404040400111111113B
:104AC00011110E0011111111110A0400111111150B
:104AD00015150A0011110A040A11110011110A0416
:104AE000040404001F10080E02011F001E0202022F
:104AF00002021E0000010204081000001E10101027
:104B000010101E00040A1100000000000000000048
:104B100000001F0006060408000000000000060850
:104B20000E091E0001010D1311130D0000000E11DE
:104B300001110E00101016191119160000000E11A7
:104B40001F010E000814040E0404040000000E19D6
:104B50001916100E01010D131111110004000604A5
:104B600004040E00080008080809060001010905F0
:104B7000030509000604040404040E0000000B15DC
:104B80001515150000000D131111110000000E1174
:104B900011110E0000000D13130D01010000161974
:104BA0001916101000000D130101010000001E0174
:104BB0000E100F0004041F0404140800000011115B
:104BC0001119160000001111110A04000000111142
:104BD00015150A000000110A040A11000000111145
:104BE0001E10110E00001F0804021F00080404021A
:104BF000040408000404040004040400020404087B
:104C0000040402000215080000000000000000007B
:104C10000000000000000C12120C000000000C1E2E
:104C20001E0C000000001E12121E000000001E1EBE
:104C30001E1E000000000C0C121E000000000C0CD8
:104C40001E1E000000001E120C0C000000001E1EA4
:104C50000C0C000000001816161800000000181EAA
:104C60001E1800000000061A1A0600000000061EAA
:104C70001E06000000000C12120C000000000C1EAA
:104C80001E0C000000001E12121E000000001E1E5E
:104C90001E1E0000000000000000000000000000D8
:104CA0000000000000000000000000000000000004
:104CB00000000000000000000000000000000000F4
:104CC000000000000000800180018001800180015F
:104CD00080018001800180018001800180018001CC
:104CE00000000000800180010000000000000000C2
:104CF0000000000000000000CC00CC00CC00CC0084
:104D0000CC00CC000000000000000000000000000B
:104D10000000000000000000000000000000000093
:104D20000000000000000000000000000000000083
:104D3000600C600C600C30063006FE1FFE1F300653
:104D400038071803FE1FFE1F180318038C018C017F
:104D50008C01000000008000E003F80F9C0E8C1C0A
:104D60008C188C009800F801E007800E801C8C18CD
:104D70008C189C18B80CF00FE00380008000000035
:104D8000000000000000000000000E181B0C110CB9
:104D900011061106110311039B018E01C038C06C6E
:104DA00060446044304430441844186C0C380000AF
:104DB000000000000000E001F003380718061806A4
:104DC0003003F001F000F8009C310E33061E061C83
:104DD000061C063FFC73F0210000000000000000EC
:104DE00000000000000000000C000C000C000C0093
:104DF0000C000C000000000000000000000000009B
:104E000000000000000000000000000000000000A2
:104E1000000000000000000200038001C000C0008C
:104E200060006000300030003000300030003000A2
:104E30003000300060006000C000C000800100034E
:104E400000020000000020006000C000800180011E
:104E50000003000300060006000600060006000628
:104E6000000600060003000380018001C00060000E
:104E70002000000000000000000000000000000012
:104E8000C000C000D806F807E00130033807000072
:104E90000000000000000000000000000000000012
:104EA0000000000000000000000000000000000002
:104EB00080018001800180018001FC3FFC3F800176
:104EC00080018001800180010000000000000000DE
:104ED00000000000000000000000000000000000D2
:104EE00000000000000000000000000000000000C2
:104EF000000000000000800180010001000180002E
:104F000000000000000000000000000000000000A1
:104F1000000000000000000000000000E007E007C3
:104F20000000000000000000000000000000000081
:104F30000000000000000000000000000000000071
:104F40000000000000000000000000000000000061
:104F5000000000000000C000C000000000000000D1
:104F6000000000000000000C000C00060006000617
:104F70000003000300038003800180018001C00062
:104F8000C000C000600060000000000000000000E1
:104F9000000000000000E003F007380E180C0C18A9
:104FA0000C180C180C180C180C180C180C180C18E1
:104FB000180C380EF007E0030000000000000000AD
:104FC00000000000000000018001C001F001980114
:104FD00088018001800180018001800180018001C1
:104FE00080018001800180010000000000000000BD
:104FF000000000000000E003F80F180C0C180C185B
:1050000000180018000C000600038001C0006000BA
:1050100030001800FC1FFC1F000000000000000012
:10502000000000000000E001F807180E0C0C0C0C4A
:10503000000C0006C003C007000C001800180C1874
:105040000C18180CF807E003000000000000000036
:10505000000000000000000C000E000F000F800D8B
:10506000C00C600C600C300C180C0C0CFC3FFC3FAE
:10507000000C000C000C000C000000000000000000
:10508000000000000000F80FF80F180018000C00D6
:10509000EC03FC071C0E001C0018001800180C186C
:1050A0001C0C180EF807E0030000000000000000D0
:1050B000000000000000C007F00F381C181818008E
:1050C0000C00CC03EC0F3C0E1C1C0C180C180C181C
:1050D000181C380EF007E00300000000000000007C
:1050E000000000000000FC1FFC1F000C0006000672
:1050F000000380038001C001C000E0006000600088
:10510000700030003000300000000000000000009F
:10511000000000000000E003F007380E180C180C27
:10512000180C3806F007F007180C0C180C180C189F
:105130000C18380CF80FE00300000000000000001D
:10514000000000000000E003F007380E1C0C0C18F3
:105150000C180C181C1C381EF81BE0190018000C49
:10516000000C1C0EF807F001000000000000000019
:10517000000000000000000000000000000000002F
:10518000800180010000000000000000000000001D
:10519000000000008001800100000000000000000D
:1051A00000000000000000000000000000000000FF
:1051B00080018001000000000000000000000000ED
:1051C000000000008001800100010001800000005B
:1051D00000000000000000000000000000000000CF
:1051E000000000000010001C800FE003F800180011
:1051F000F800E003800F001C001000000000000019
:10520000000000000000000000000000000000009E
:1052100000000000F81F000000000000F81F000060
:10522000000000000000000000000000000000007E
:10523000000000000000000000000000000000006E
:105240000000000008003800F001C007001F00182F
:10525000001FC007F0013800080000000000000037
:10526000000000000000E003F80F180C0C180C18E8
:105270000018000C000600038001C000C000C00040
:1052800000000000C000C00000000000000000009E
:105290000000000000000000E00718180420C229E8
:1052A000224A114409440944094409221113E20C19
:1052B000024004201818E007000000000000000071
:1052C00000000000000080038003C006C006C00686
:1052D000600C600C301830183018F83FF83F1C7024
:1052E0000C600C6006C006C000000000000000005A
:1052F000000000000000FC03FC0F0C0C0C180C1844
:105300000C180C0CFC07FC0F0C180C300C300C307B
:105310000C300C18FC1FFC0700000000000000000F
:10532000000000000000C007F01F38381C300C706F
:10533000066006000600060006000600060006607D
:105340000C701C30F01FE00700000000000000009F
:10535000000000000000FE03FE0F060E06180618EF
:1053600006300630063006300630063006300618A5
:105370000618060EFE0FFE030000000000000000ED
:10538000000000000000FC3FFC3F0C000C000C0083
:105390000C000C00FC1FFC1F0C000C000C000C008F
:1053A0000C000C00FC3FFC3F00000000000000006F
:1053B000000000000000F83FF83F18001800180037
:1053C00018001800F81FF81F18001800180018001F
:1053D000180018001800180000000000000000006D
:1053E000000000000000E00FF83F3C780E6006E08F
:1053F00007C00300030003FE03FE03C007C006C08E
:105400000EC03CF0F83FE00F00000000000000007C
:105410000000000000000C300C300C300C300C3060
:105420000C300C30FC3FFC3F0C300C300C300C309E
:105430000C300C300C300C3000000000000000007C
:1054400000000000000080018001800180018001D7
:105450008001800180018001800180018001800144
:105460008001800180018001000000000000000038
:10547000000000000000000600060006000600060E
:1054800000060006000600060006000600061806D4
:1054900018063807F003E0010000000000000000DB
:1054A00000000000000006300618060C0606060381
:1054B0008601C60066007600DE008E010603060641
:1054C000060C061806300660000000000000000010
:1054D0000000000000001800180018001800180054
:1054E00018001800180018001800180018001800FC
:1054F00018001800F81FF81F00000000000000004E
:105500000000000000000EE01EF01EF01EF036D875
:1055100036D836D836D866CC66CC66CCC6C6C6C6B3
:10552000C6C6C6C686C386C30000000000000000D1
:105530000000000000000C301C303C303C306C306F
:105540006C30CC30CC308C310C330C330C360C3608
:105550000C3C0C3C0C380C3000000000000000003B
:10556000000000000000E007F81F1C380E70066005
:1055700003C003C003C003C003C003C003C0066070
:105580000E701C38F81FE00700000000000000004B
:10559000000000000000FC0FFC1F0C380C300C3029
:1055A0000C300C300C18FC1FFC070C000C000C001D
:1055B0000C000C000C000C000000000000000000BB
:1055C000000000000000E007F81F1C380E700660A5
:1055D00003E003C003C003C003C003C007E00663C9
:1055E0000E3F1C3CF83FE0F700C000000000000048
:1055F000000000000000FE0FFE1F063806300630D7
:1056000006300638FE1FFE0706030606060C0618BF
:10561000061806300630066000000000000000009A
:10562000000000000000E003F80F1C0C0C180C1820
:105630000C001C00F803E00F001E00380630063096
:105640000E301C1CF80FE0070000000000000000F6
:10565000000000000000FE7FFE7F800180018001CD
:105660008001800180018001800180018001800132
:105670008001800180018001000000000000000026
:105680000000000000000C300C300C300C300C30EE
:105690000C300C300C300C300C300C300C300C302A
:1056A0000C301818F81FE007000000000000000090
:1056B00000000000000003600630063006300C18C1
:1056C0000C180C18180C180C380E30063006700721
:1056D00060036003C001C001000000000000000082
:1056E0000000000000000360C361C361C361663352
:1056F000663366336633663366336C1B6C1B6C1B18
:105700002C1A3C1E380E380E00000000000000006D
:105710000000000000000FE00C7018303018700C12
:10572000600EC00780038003C003E006700C301CCD
:1057300018180C300E6007E00000000000000000A8
:1057400000000000000003C006600C301C38381850
:10575000300C6006E007C0038001800180018001F9
:105760008001800180018001000000000000000035
:10577000000000000000FC7FFC7F0060003000188B
:10578000000C000600038001C0006000300018001B
:105790000C000600FE7FFE7F0000000000000000FD
:1057A000000000000000E003E00360006000600013
:1057B00060006000600060006000600060006000E9
:1057C0006000600060006000600060006000E00356
:1057D000E003000000003000300060006000600066
:1057E000C000C000C000C001800180018001000332
:1057F0000003000300060006000000000000000097
:10580000000000000000E003E003000300030003C9
:105810000003000300030003000300030003000370
:105820000003000300030003000300030003E00380
:10583000E003000000000000C001C001600360033D
:10584000600330063006180C180C00000000000041
:105850000000000000000000000000000000000048
:105860000000000000000000000000000000000038
:105870000000000000000000000000000000000028
:10588000000000000000FFFFFFFF0000000000001C
:105890000000000000000C000C000C000C000C00CC
:1058A0000C000000000000000000000000000000EC
:1058B00000000000000000000000000000000000E8
:1058C00000000000000000000000000000000000D8
:1058D000F003F8071C0C0C0C000FF00FF80C0C0C6C
:1058E0000C0C1C0FF80FF018000000000000000066
:1058F0000000000000001800180018001800180030
:10590000D803F80F380C1818181818181818181881
:105910001818380CF80FD803000000000000000031
:105920000000000000000000000000000000000077
:10593000C003F007300E180C1800180018001800EB
:10594000180C300EF007C00300000000000000003B
:1059500000000000000000180018001800180018CF
:10596000C01BF01F301C1818181818181818181811
:105970001818301CF01FC01B0000000000000000C1
:105980000000000000000000000000000000000017
:10599000C003F00F300C1818F81FF81F180018007B
:1059A0003818301CF00FC007000000000000000095
:1059B000000000000000800FC00FC000C000C00049
:1059C000F007F007C000C000C000C000C000C00069
:1059D000C000C000C000C0000000000000000000C7
:1059E00000000000000000000000000000000000B7
:1059F000E00DF80F180E0C0C0C0C0C0C0C0C0C0C15
:105A00000C0C180EF80FE00D000C0C0C1C06F8071F
:105A1000F00100000000180018001800180018001D
:105A2000D807F80F381C181818181818181818184C
:105A300018181818181818180000000000000000A6
:105A4000000000000000C000C000000000000000D6
:105A5000C000C000C000C000C000C000C000C00046
:105A6000C000C000C000C000000000000000000036
:105A7000000000000000C000C000000000000000A6
:105A8000C000C000C000C000C000C000C000C00016
:105A9000C000C000C000C000C000C000C000F800CE
:105AA0007800000000000C000C000C000C000C0042
:105AB0000C0C0C060C038C01CC006C00FC009C014F
:105AC0008C030C030C060C0C00000000000000000E
:105AD000000000000000C000C000C000C000C00006
